:020000040800F2
:10000000501100200D0D0008A12F0008A32F00089B
:10001000A72F0008AB2F0008AF2F0008000000003A
:10002000000000000000000000000000B32F0008E6
:10003000B52F000800000000432E0008052F00081F
:10004000270D0008270D0008270D0008270D0008C0
:10005000270D0008270D0008270D0008270D0008B0
:10006000270D0008270D0008270D0008270D0008A0
:10007000270D0008270D0008270D0008270D000890
:10008000270D0008270D0008270D0008270D000880
:10009000270D0008270D0008270D0008270D000870
:1000A000270D0008270D0008270D0008270D000860
:1000B000270D0008270D0008270D0008270D000850
:1000C000270D0008270D0008270D0008270D000840
:1000D000270D0008270D0008270D0008270D000830
:1000E000270D0008270D0008270D0008270D000820
:1000F000270D0008270D0008270D0008270D000810
:10010000270D0008270D0008270D0008270D0008FF
:10011000270D0008270D0008270D0008270D0008EF
:10012000270D0008270D0008270D0008270D0008DF
:1001300000F002F800F03AF80AA090E8000C8244BF
:100140008344AAF10107DA4501D100F02FF8AFF29C
:10015000090EBAE80F0013F0010F18BFFB1A43F0A5
:1001600001031847CC2F0000EC2F0000103A24BFE9
:1001700078C878C1FAD8520724BF30C830C144BF0C
:1001800004680C607047000000230024002500264E
:10019000103A28BF78C1FBD8520728BF30C148BFEA
:1001A0000B6070471FB51FBD10B510BD02F006FFF4
:1001B0001146FFF7F7FF02F0E8FE02F024FF03B458
:1001C000FFF7F2FF03BC02F02BFF00000CB500208C
:1001D000019000906C48006840F480306A490860E3
:1001E00000BF6948006800F4003000900198401C8E
:1001F0000190009818B90198B0F5A06FF1D162484C
:10020000006800F4003010B10120009001E00020EF
:1002100000900098012843D15C48006840F010002D
:100220005A4908600846006820F003000860084644
:10023000006840F002000860534840685249486036
:100240000846406848600846406840F4806048605E
:100250000846406820F47C1048600846406840F436
:10026000E81048600846006840F08070086000BFF1
:100270004548006800F000700028F9D04248406806
:1002800020F00300404948600846406840F0020002
:10029000486000BF3C48406800F00C000828F9D1D5
:1002A0000CBD10B5FFF792FF10BD10B536480068C1
:1002B00040F001003449086008464068344908406D
:1002C0003149486008460068324908402E490860B4
:1002D0000846006820F4802008600846406820F442
:1002E000FE0048604FF41F008860FFF7DAFF4FF010
:1002F00000602949086010BD10B5002100200022CF
:10030000214B5B6803F00C0121B1042906D00829B8
:1003100028D107E0214B224C236027E01F4B204CC3
:10032000236023E0184B5B6803F47010164B5B6886
:1003300003F48032022303EB904022B9194B43436C
:10034000174C23600DE0104B5B6803F4003323B1BE
:10035000144B4343124C236003E0104B4343104CB7
:10036000236003E00D4B0E4C236000BF00BF064B23
:100370005B68C3F303130C4CE15C094B1B68CB4077
:10038000074C236010BD0000001002400020024016
:100390000000FFF8FFFFF6FE08ED00E000127A0013
:1003A0000000002000093D0004000020DF48006834
:1003B00040F00100DD49086008464068DC4908401B
:1003C000DA49486008460068DA490840D7490860B9
:1003D0000846006820F4802008600846406820F441
:1003E000FE0048604FF41F0088607047CF490968DD
:1003F00021F48031CD4A11601146096821F4802131
:100400001160B0F5803F03D0B0F5802F0ED106E02B
:10041000C649096841F48031C44A116007E0C34904
:10042000096841F4A021C14A116000E000BF00BF8B
:10043000704710B501460022002300204A11012A0E
:1004400002D1BA4C236806E0022A02D1B74C236AD3
:1004500001E0B64C636A01F01F02012494401C4085
:100460000CB1012000E0002010BD38B50020009044
:100470000024002500BF3120FFF7DBFF0546009870
:10048000401C00900098B0F5A06F01D0002DF2D074
:100490003120FFF7CEFF08B1012400E00024204600
:1004A00038BD01460020A14A106820F0F80040EA5B
:1004B000C10010607047A0490860704702460020E4
:1004C0009A4B586820F47C1042EA01031843974B7A
:1004D0005860704798490866704701460020934A63
:1004E000506820F003000843506070478F48406810
:1004F00000F00C007047014600208C4A506820F044
:10050000F00008435060704701460020874A506859
:1005100020F4E06008435060704701460020834AA1
:10052000506820F4605040EAC1005060704729B123
:100530007E4A527A02437D4B5A7204E07B4A527AD9
:1005400082437A4B5A7270477B49D83108607047B2
:1005500001460020754A506820F44040084350602E
:1005600070470021714A20321170704A82F82010C1
:10057000012802D004280AD104E001216B4A20326C
:10058000117005E00521694A2032117000E000BFBA
:1005900000BF70476949086070476449096A0143B0
:1005A000624A11627047654944390860704730B546
:1005B00000210022002400235C4D6D6805F00C0131
:1005C00021B1042905D0082923D105E05C4D05603F
:1005D00022E05B4D05601FE0544D6D6805F470121C
:1005E000524D6D6805F48034022505EB92421CB92A
:1005F000544D554305600BE04C4D6D6805F40035D6
:100600001DB1504D5543056002E04D4D5543056009
:1006100002E04B4D056000BF00BF444D6D6805F022
:10062000F0010909484D6B5C0568DD4045603F4DB0
:100630006D6805F4E061090A434D6B5C4568DD4077
:1006400085603A4D6D6805F46051C90A3E4D6B5C9A
:100650004568DD40C560354D6D6805F44041890B46
:100660003A4D6B5CC568B5FBF3F5056130BD29B14A
:100670002E4A526902432D4B5A6104E02B4A5269BB
:1006800082432A4B5A61704729B1284A9269024332
:10069000264B9A6104E0254A92698243234B9A6172
:1006A000704729B1214AD2690243204BDA6104E044
:1006B0001E4AD26982431D4BDA61704729B11B4A39
:1006C000D2680243194BDA6004E0184AD2688243C8
:1006D000164BDA60704729B1144A12690243134B72
:1006E0001A6104E0114A12698243104B1A61704783
:1006F00012494039086070470F49C86470470B4978
:10070000C87170470948406A40F0807007494862E4
:10071000704701460020054A92680A400AB101204C
:1007200000E00020704701498872704700100240C5
:100730000000FFF8FFFFF6FE000042428004424244
:1007400000127A0000093D0014000020240000205F
:1007500001460020FE4A106800F03800084310608F
:100760007047FB49096821F00801F94A11601146F8
:100770000968014311607047F549096821F01001CB
:10078000F34A116011460968014311607047F1484E
:10079000EF494860F04848607047EE48EC494860CF
:1007A000ED4848607047EA48006940F08000E84939
:1007B00008617047E648006940F08000E44908613C
:1007C00070470420E249C96801F0010109B1012024
:1007D0000EE0DF49C96801F0040109B1022007E019
:1007E000DB49C96801F0100109B1032000E00420D1
:1007F000704700B502460423FFF7E3FF034603E01A
:10080000FFF7DFFF0346521E012B01D1002AF7D16B
:1008100002B90523184600BD30B5044604254FF43F
:100820003020FFF7E6FF0546042D17D1C8480069C0
:1008300040F00200C649086108464461006940F082
:10084000400008614FF43020FFF7D3FF0546C04851
:10085000006941F6FD710840BD490861284630BD78
:1008600010B504244FF43020FFF7C3FF0446042CD6
:1008700016D1B748006940F00400B5490861084640
:10088000006940F0400008614FF43020FFF7B1FFED
:100890000446AF48006941F6FB710840AC49086165
:1008A000204610BD00B502460423FFF78AFF034629
:1008B00003E0FFF786FF0346521E012B01D1002AF9
:1008C000F7D102B90523184600BD10B504244FF432
:1008D0003020FFF7E7FF0446042C16D19C4800693E
:1008E00040F004009A4908610846006940F0400061
:1008F00008614FF43020FFF7D5FF044694480069A3
:1009000041F6FB71084092490861204610BD002065
:100910008F49C96901F0020109B1012000E00020FE
:10092000704730B5A5250424FFF7F1FF00B100257D
:100930004FF43020FFF75DFF0446042C3AD1854880
:1009400083498860844888600846006940F0200038
:1009500008610846006940F0400008614FF430200B
:10096000FFF747FF0446042C1BD17948006941F684
:10097000DF710840764908610846006940F01000C0
:10098000086176480580E002FFF733FF0446052C36
:1009900010D06F48006941F6EF7108406C4908615A
:1009A00008E0052C06D06A48006941F6EF7108405E
:1009B00067490861204630BD78B506460C460425D7
:1009C00000200090E802FFF714FF0546042D24D113
:1009D0005F48006940F001005D4908613480E80229
:1009E000FFF707FF0546042D10D1B01C0090200C26
:1009F00000990880E802FFF7FCFE054654480069AC
:100A000041F6FE7108405249086106E0504800690D
:100A100041F6FE7108404E490861284678BD70B520
:100A200004460D460426F002FFF7E3FE0646042EB8
:100A300011D14748006940F001004549086125800F
:100A4000F002FFF7D6FE06464148006941F6FE7106
:100A500008403F490861304670BD70B505460E46F6
:100A60000424E002FFF7C5FE0446042C17D13948E0
:100A700037498860384888600846006940F01000AF
:100A800008612E80E002FFF7B4FE0446052C06D074
:100A90002F48006941F6EF7108402D490861204652
:100AA00070BD2DE9F04304464FF6FF763746B04659
:100AB000B1460425E443E6B2C4F30727C4F307486C
:100AC0004FEA1469E802FFF794FE0546042D49D168
:100AD00020481F498860204888600846006940F027
:100AE00010000861FF2E06D01C4808300680E8027E
:100AF000FFF77FFE0546042D08D1FF2F06D01748CB
:100B00000A300780E802FFF774FE0546042D0AD17B
:100B1000B8F1FF0F07D011480C30A0F80080E802B0
:100B2000FFF767FE0546042D0AD1B9F1FF0F07D084
:100B30000A480E30A0F80090E802FFF75AFE05467A
:100B4000052D0FD00248006941F6EF71084007E01B
:100B50000020024023016745AB89EFCD00F8FF1F5D
:100B6000664908612846BDE8F08330B5054604248F
:100B70004FF43020FFF73DFE0446042C41D160487D
:100B80005E4988605F4888600846006940F0200040
:100B900008610846006940F0400008614FF43020C9
:100BA000FFF727FE0446042C22D15448006941F681
:100BB000DF710840514908610846006940F01000A3
:100BC00008611DB100205049088002E0A5204E496F
:100BD00008804FF43020FFF70CFE0446052C10D09F
:100BE0004648006941F6EF7108404449086108E051
:100BF000052C06D04148006941F6DF7108403F49A5
:100C00000861204630BDF0B505460E46174604245F
:100C10003B483A4988603B488860E002FFF7E9FDBD
:100C20000446042C19D13548006940F010003349BE
:100C3000086147F0F800304328433349891C088095
:100C4000E002FFF7D6FD0446052C06D02B480069CC
:100C500041F6EF710840294908612046F0BD274858
:100C6000C069800870472548006A70470020234902
:100C7000096801F0200109B1012000E0002070475F
:100C800029B11E4A126902431C4B1A6104E01B4A37
:100C900012698243194B1A617047014600200129ED
:100CA00008D1164AD26902F001020AB1012008E017
:100CB000002006E0114AD2680A400AB1012000E093
:100CC000002070470D49C860704704200B49C9686F
:100CD00001F0010109B101200EE00849C96801F0E5
:100CE000040109B1022007E00449C96801F01001BC
:100CF00009B1032000E004207047000000200240FA
:100D000023016745AB89EFCD00F8FF1F09488047F5
:100D100009480047FEE7FEE7FEE7FEE7FEE7FEE7DD
:100D2000FEE7FEE7FEE7FEE704480549054A064BF5
:100D300070470000AB02000831010008500B002092
:100D400050110020500D0020500D00207CB50025D2
:100D500014E06946284601F013FE064666B9F748D6
:100D600050F8254044B1012C06D0D4E9020100EB33
:100D7000810060640198A064681CC5B23F2DE8D969
:100D80007CBD002400BF02E0C82001F003FFEC4856
:100D900000780028F8D0EB4800686421B0FBF1F03F
:100DA000E84908600846006828B90020E64908704C
:100DB000FF2001F027FE00BF02F01CF80446E348C4
:100DC0000068E34908600020E0490860204602F01E
:100DD00015F8DF480068DB490968B0FBF1F0C0F1A5
:100DE0006400D949087001F0B2FFFFF7AFFF64203B
:100DF00001F0D0FEE0E700B587B00320002180229B
:100E0000D44BCDE90132CDE903104FF6FE703E23FD
:100E1000D14A0090AFF2950001F0CBFB06AACFA11A
:100E20003E2001F02FFD07B000BD002400BF00BF31
:100E300001F0E0FF0446C5480068401CC349086053
:100E4000204601F0DBFF01F081FFF1E700B587B03C
:100E5000032000218022C54BCDE90132CDE90310EA
:100E60004FF6FF703F23C24A0090AFF2410001F0FD
:100E7000A0FB06AABFA13F2001F004FD07B000BD02
:100E800004E0002200F8012B4A1E91B20029F8D19B
:100E9000704770B5C821BB48FFF7F2FF00230FE091
:100EA000581C85B203EB8300B64901EB800405EBC7
:100EB000850001EB8006002020706660581C83B21C
:100EC000092BEDD303EB8300AE4901EB8004002036
:100ED000207060600846AC49086070BD70B54FF482
:100EE0007C71AA48FFF7CCFF4FF480719348FFF75D
:100EF000C7FF002413E0601CC5B2C4EBC40000EBC4
:100F00004000A24901EB8003C5EBC50000EB4000A7
:100F100001EB80065E619EA0D864601CC4B20B2CFD
:100F2000E9D3C4EBC40000EB4000984901EB800317
:100F30000020586196A0D864002096490860934824
:100F40009549086070BD0021944A1170002004E0AA
:100F50000021934A1154411CC8B20828F8D300213B
:100F6000904A1170904A1170904A1160904A116035
:100F7000704700208F4908608F4908708F490870BA
:100F80008F4908708F4908708F4908606F49086061
:100F90006F4908606B49086069490870704710B56F
:100FA00001F0D0FEFFF7E5FFFFF7CDFFFFF796FF5B
:100FB000FFF76FFF00F0EAFE01F0E1F9FFF746FFEF
:100FC000FFF719FF01F0BFFE10BD7E480078012831
:100FD00008D179480078FF2804D277480078401C6F
:100FE00075490870704779496C4A1278885C6C4979
:100FF000095C764A515C01EBC0016B4A1170704785
:1010000010B500246F480078012830D101F0F2FEBD
:1010100004466948007820B167480078401E664958
:10102000087065480078F8B964480078E0B9FFF7BF
:10103000DAFF42485C49097850F821005B490860B2
:10104000594800785749097888420DD057480068B8
:10105000806B401C5549096888635B480068401CE8
:101060005949086001F0E5FE204601F0C7FE10BDB9
:1010700010B5002453480078012811D101F0BAFEC0
:1010800004464D48007840B94C480078FF2804D207
:101090004A480078401C49490870204601F0AEFEDD
:1010A00010BD10B5002401F0A5FE044642480078AA
:1010B000F8B942480078E0B9FFF795FF1F483A4970
:1010C000097850F8210039490860374800783549D7
:1010D000097888420DD035480068806B401C334940
:1010E0000968886338480068401C3749086001F087
:1010F00099FE204601F082FE10BD10B50024314853
:10110000007801286FD101F075FE04462B48007865
:1011100080B12A480078401E2849087008460078A7
:1011200048B92548007838B9204601F067FEFFF736
:10113000B8FF58E054E04FE04AE000008805002086
:101140004000002038000020340000205000002023
:101150003C000020880100208403002075432F4FAD
:10116000532D494920537461740000008803002006
:101170008405002075432F4F532D49492049646C45
:1011800065000000700000202C0000208806002070
:101190003F000000600000205800002045000020B3
:1011A0004600002043000020440000205C00002096
:1011B000540000206C00002041000020420000206C
:1011C0004F0000204E000020280000202E30000894
:1011D000204601F013FE06E0204601F00FFE02E07B
:1011E000204601F00BFE10BD10B5EB48007890B919
:1011F000FFF7F9FEE9480078E9490870E948E7494E
:10120000097850F82100E849086008460068E74975
:10121000086001F0F6FD10BD10B50024022001F0B9
:10122000B9FC01F0E7FD04460020E14908602046D2
:1012300001F0E4FD642001F0ADFC01F0DBFD0446AB
:10124000DB480068DB4908600120DB490870204664
:1012500001F0D4FD10BD70B5002601F0C8FD01F00D
:10126000C9FD0646D5480068401CD4490860304690
:1012700001F0C4FDC8480078012853D1D048007857
:1012800020B1012804D0022809D103E001250BE098
:10129000002509E001250120C949087004E0012565
:1012A0000020C749087000BF00BF05B970BDC54820
:1012B000046833E001F09EFD0646E06A50B3E06A40
:1012C000401EE062E06A28BB94F8300000F037006E
:1012D00040B114F8300F00F0C80020700120607099
:1012E000303C02E0002084F8310094F8300000F037
:1012F000080078B93434A078B34909780843B24972
:1013000008702078B149085C6178084314F83419F2
:10131000AE4A50546469304601F070FD94F83200D2
:101320003F28C7D100BFC1E740F223107047704784
:1013300010B590F8342001F10B039B5C90F8354018
:10134000A34301F10B04A35423469B5C23B98B7A7E
:1013500090F83640A3438B7210BD2DE9F04F05463F
:101360000F4690469946A87A99490E5C05F10B0004
:10137000805D11F800B00BEBC60000F0FF0A894851
:1013800050F82A4000202034E0602760207C20EACA
:101390000800207484F81190207C203C00F00800A4
:1013A00068B994F836008849097808438649087076
:1013B0008648805D94F8351008438449885529464D
:1013C0002046FFF7B5FF5046BDE8F08F10B5774ACD
:1013D0001268D061754A126892F8343000F10B023D
:1013E000D25C724B1B6893F835301A436F4B1B6805
:1013F00093F8344000F10B031A55827A6B4B1B684B
:1014000093F836301A438272684A126892F83410A0
:101410006E4A525C654B1B6893F835309A436B4BB0
:101420005A541A46525C42B9604A126892F83630F1
:10143000654A12789A43644B1A7010BD0146002227
:101440008A72002005E0002301F10B021354421CB4
:10145000D0B20828F7D3704705E011F8013B00F837
:10146000013B531E9AB2002AF7D170470146002073
:1014700002E0491C421CD0B20A78002AF9D1704718
:101480002DE9F84F05460F4690469946DDE90AAB2F
:101490000020009001F0AEFC00904E480468002C43
:1014A00075D0183454F8040C4A490860009801F0CB
:1014B000A5FC44F8187CA576002020766076606153
:1014C00044F814BC44F80CAC44F8108C0C9824F884
:1014D000080C24F8069C0020E077E810207705F03F
:1014E0000700E076217F01208840A077E17E01207F
:1014F0008840607700206060E060A0602062A062A9
:101500006062E0622063AFF278306063183C0026CE
:1015100006E0002104F1500040F82610701CC6B20D
:10152000002EF6D0204601F061FC204601F00CFCB4
:1015300001F060FC00901B4840F8254021480068FD
:1015400060610020A0611F48006810B11D4800685C
:1015500084611C4804603434A0781B49097808432E
:101560001949087020781949085C6178084314F813
:101570003419164A505418480078401C164908700F
:10158000009801F03BFC0020BDE8F88FFFE70098D1
:1015900001F034FC4220F7E74E0000204400002018
:1015A00043000020880500205C000020540000203B
:1015B0005000002038000020400000206C00002077
:1015C000640000206000002045000020460000204C
:1015D0002E300008580000204F0000202DE9F05F59
:1015E00004460F4691461E464FF0000B2078052812
:1015F00004D0012030700020BDE8F09F09F0800A7F
:10160000BAF1000F04D029F080094FF0010801E081
:101610004FF000080020307001F0ECFB8346B9F178
:10162000000F2CD0B9F1010F3BD0B9F1020F03D05C
:10163000B9F1030F46D111E0208900EA0705BD4248
:1016400006D1B8F1010F05D12089A843208101E01E
:1016500070203070584601F0D1FB3AE0208900EA52
:10166000070535B1B8F1010F05D12089A8432081C4
:1016700001E070203070584601F0C0FB29E020895D
:1016800027EA0005BD4206D1B8F1010F05D1208936
:101690002843208101E070203070584601F0AEFBF5
:1016A00017E0208927EA000535B1B8F1010F05D10F
:1016B00020892843208101E070203070584601F0D5
:1016C0009DFB06E0584601F099FB00256F20307025
:1016D00000BF00BF28468FE72DE9F04106460D46C2
:1016E0000027FA48007820B1102028700020BDE8BB
:1016F000F08101F07FFB0746F548046884B100687B
:101700004068F34908600520207026810020606051
:10171000F0A0E060384601F071FB0020287004E082
:10172000384601F06BFB722028702046DFE730B5A9
:1017300001464A6808682AB9CC68606028B100256B
:10174000456002E0106000B142608B6800255D6278
:1017500030BDF0B506460F46B468002028346060FE
:101760002780207A00F0DF00207200206072207A4B
:10177000283C88B93434A078D74909780843D64939
:1017800008702078D549085C6178084314F834194A
:10179000D24A5054012500E000253046FFF7C7FF2C
:1017A0002846F0BD2DE9F0470446894615464FF01E
:1017B000000AC648007820B10F2028702046BDE8F6
:1017C000F0872078052803D0012028702046F6E70E
:1017D00001F010FB8246606808B1012700E0002795
:1017E000B9F1000F03D0B9F1010F3CD119E08FB965
:1017F000B8A0E06000202070B5480068606000205C
:101800002081B3480460504601F0F8FA00202870A7
:10181000002605E0504601F0F1FA492028702646DE
:1018200028E0D4F8048005E000214046FFF791FF4E
:10183000D8F80080B8F1000FF6D1A6A0E060002033
:101840002070A3480068606000202081A0480460E8
:10185000504601F0D3FA012F01D1FFF722FC0020FE
:101860002870002606E0504601F0C8FA07202870CC
:10187000264600BF00BF3046A1E72DE9F0410546EE
:101880000E46144600279148007820B111202070A0
:101890000020BDE8F08101F0ADFA07462878052860
:1018A00006D0384601F0AAFA012020700020F0E7A7
:1018B000E86830603068FFF7D9FD8046384601F0AF
:1018C0009DFA002020704046E3E72DE9F0410546EF
:1018D0000E46144600277D48007818B1122020706B
:1018E000BDE8F08101F086FA07462878052805D082
:1018F000384601F083FA01202070F1E7EE603846A7
:1019000001F07CFA0020207000BFE9E7F0B5144632
:10191000059E734F3F6897F8307047F02007DFF857
:10192000C0C1DCF800C08CF830700027DFF8B0C10F
:10193000DCF800C08CF83170694F3F68FE62684F78
:101940003F6879620C828B74654F3F688F6047688F
:101950000F6000274F60C860456805B1696041604D
:101960005F4F3F6897F834205C4FBF5CDFF870C171
:10197000DCF800C09CF835C027EA0C07DFF85CC132
:101980000CF802706746BF5C5FB9554F3F6897F827
:1019900036C0514F3F7827EA0C07DFF83CC18CF87E
:1019A0000070F0BD2DE9F04F89B005460F46914615
:1019B0009A46129E002002904448007828B10220E6
:1019C0003070002009B0BDE8F08F4648007818B1AB
:1019D0000D2030700020F5E72878052803D001207D
:1019E00030700020EEE709F0800BBBF1000F04D04F
:1019F00009F07F094FF0010801E04FF0000801F005
:101A0000F9F90290B9F1000F4AD0B9F1010F78D07D
:101A1000B9F1020F03D0B9F1030F71D120E0288989
:101A200000EA0704BC420FD1B8F1010F02D12889A6
:101A3000A04328812A4800680485029801F0DEF955
:101A4000002030702046BDE74B463A4604A92846A0
:101A5000CDF800A0FFF75AFF029801F0CFF978E027
:101A6000288900EA07047CB1B8F1010F02D1288966
:101A7000A04328811A4800680485029801F0BEF945
:101A80000020307020469DE74B463A4604A9284680
:101A9000CDF800A0FFF73AFF029801F0AFF958E047
:101AA000288927EA0004BC421ED1B8F1010F02D1F7
:101AB0002889204328810A4800680485029801F09B
:101AC0009DF90020307020467CE71AE0410000209C
:101AD000300000203F0000004500002046000020AC
:101AE00054000020420000204B463A4604A92846F4
:101AF000CDF800A0FFF70AFF029801F07FF928E077
:101B00001FE0288927EA00047CB1B8F1010F02D157
:101B1000288920432881B14800680485029801F093
:101B20006DF90020307020464CE74B463A4604A938
:101B30002846CDF800A0FFF7E9FE029801F05EF913
:101B400007E0029801F05AF900246F203070204617
:101B500038E700BFFFF7A5FA01F04CF902909F4863
:101B6000006890F8310020B39C48006890F831007C
:101B7000039000209949096881F8310004A8FFF713
:101B8000D6FD00209549096881F83000029801F0DF
:101B900035F900240398012805D0022802D10E202F
:101BA000307003E000BF0A20307000BF00BF204645
:101BB00008E78A480068048DB8F1010F1ED1B9F119
:101BC000000F0ED0B9F1010F0CD0B9F1020F03D004
:101BD000B9F1030F0AD100E000BF2889A043288192
:101BE0000BE000BF28892043288106E0029801F01D
:101BF00005F96F2030700020E4E600BF029801F084
:101C0000FDF8002030702046DCE670B5002501F0BC
:101C1000F1F8054671480068048D284601F0EEF899
:101C2000204670BD2DE9FC5F0446894692461E465B
:101C3000002000902078052804D00120307000207A
:101C4000BDE8FC9F01F0D6F80090BAF1000F03D078
:101C5000BAF1010F0AD104E0208920EA09002081AD
:101C60000BE0208940EA0900208106E0009801F09D
:101C7000C5F8712030700020E2E700BF4FF0000B84
:101C8000656855E0A87C40B3012838D0022802D00E
:101C9000032844D111E02089298A00EA0107288A13
:101CA000B84209D139462846FFF753FD8046B8F1BE
:101CB000010F01D14FF0010B38E02089298A00EA99
:101CC00001074FB139462846FFF743FD8046B8F17A
:101CD000010F01D14FF0010B28E0288A218920EA69
:101CE0000107288AB84209D139462846FFF731FD55
:101CF0008046B8F1010F01D14FF0010B16E0288AA0
:101D0000218920EA01074FB139462846FFF721FD16
:101D10008046B8F1010F01D14FF0010B06E00098A9
:101D200001F06CF86F203070002089E700BF2D684B
:101D3000002DA7D1009801F061F8BBF1010F01D18E
:101D4000FFF7AFF901F056F8009020890190009854
:101D500001F054F800203070019871E72DE9F0414E
:101D600004460D4600272078052804D0012028705D
:101D70000020BDE8F08101F03DF80746268938468D
:101D800001F03CF8002028703046F2E72DE9F041E0
:101D900050211348FFF774F800250EE0681C86B246
:101DA0000F4800EB051400EB061700202070676059
:101DB000AFF2E020E060681C85B2042DEED3084845
:101DC00000EB0514002020706060AFF2F820E060A6
:101DD000034804490860BDE8F08100005400002079
:101DE00038010020300000202DE9F04106460D4664
:101DF0004FF000083078022804D00120287000201D
:101E0000BDE8F08100F0F6FF80467468E08A78B1A2
:101E10002169081D20610F68E08A401EE082A168E8
:101E20002069884201D1606820610020287002E0AA
:101E30001F2028700027404600F0E0FF3846DFE70B
:101E40002DE9F04106460F464FF00008F7480078AC
:101E500010B10020BDE8F08100F0CCFF8046F448CE
:101E60000568006820B1F24800684068F0490860E1
:101E7000404600F0C3FF3DB300F0BCFF8046ED4894
:101E80000468C4B100680068EA490860404600F090
:101E9000B5FF666006EB8700A060E6602661A7825A
:101EA0000020E08202202870002028816C602846F3
:101EB000FFF7C4FA08E0DE4800686860DC480560A7
:101EC000404600F09BFF00252846C3E72DE9F04778
:101ED0000446894615464FF0000A2078022804D0AF
:101EE000012028702046BDE8F087D048007818B15E
:101EF0000F2028702046F6E700F07CFF8246A07A8B
:101F000010B14FF0010801E04FF00008B9F1000FE7
:101F100003D0B9F1010F45D11FE0B8F1000F15D181
:101F20006668C44800683060C248066000202070BF
:101F3000BF480068606000202081BD4804605046B2
:101F400000F05CFF00202870002705E0504600F0FC
:101F500055FF4920287027462BE005E00023042286
:101F600019462046FFF7F9F9A07A0028F6D16668ED
:101F7000B04800683060AF48066000202070AC4870
:101F80000068606000202081A9480460504600F08D
:101F900035FFB8F1010F01D1FFF783F80020287059
:101FA000002706E0504600F029FF0720287027464A
:101FB00000BF00BF384696E770B50546002600F022
:101FC00019FF06466C686068E06060682061002068
:101FD000E082304600F012FF002070BD2DE9F0478E
:101FE0000746884615464FF000093878022804D085
:101FF000012028700020BDE8F0878C48007818B1D7
:10200000022028700020F6E78B48007818B10D20D8
:1020100028700020EFE700F0EDFE81467C68E08A42
:1020200098B12169081D20610E68E08A401EE08297
:10203000A1682069884201D160682061484600F0AB
:10204000DDFE002028703046D5E77C48006890F817
:10205000300040F004007949096881F83000002020
:102060007649096881F8310074480068C0F82C800E
:102070003846FFF7ABF9484600F0C0FEFFF711F80D
:1020800000F0B8FE81466D48006890F8310020B13C
:1020900001280DD002280AD105E068480068066AC8
:1020A000002028700DE000260E20287009E000BFF7
:1020B000394662480068FFF73BF900260A2028707D
:1020C00000BF00BF00205D49096881F830005B490E
:1020D000096881F8310059490968C8615749096898
:1020E0000862484600F08AFE304684E72DE9F04158
:1020F00004460F4615464FF000082078022804D009
:10210000012028700020BDE8F08100F073FE8046B9
:10211000A07A20B300267FB1012F0CD107E0022363
:10212000042200212046FFF718F9701CC6B2A07ADD
:102130000028F4D109E000BF022304220021204638
:10214000FFF70BF9701CC6B200BF00BF404600F09D
:1021500055FEFEF7A6FF0E2028703046D3E7404616
:1021600000F04CFE0020287000BFCCE72DE9F041C4
:1021700005460E4600272878022802D00120BDE837
:10218000F08100F037FE0746A87A60B100230422F0
:1021900031462846FFF7E1F8384600F02FFEFEF7FB
:1021A00080FF0020EBE76C68E08AA18A884204DBAC
:1021B000384600F023FE1E20E1E7E168081DE060DC
:1021C0000E60E08A401CE082D4E90210884201D10E
:1021D0006068E060384600F011FE0020CFE72DE98E
:1021E000F04105460E4600272878022802D001203B
:1021F000BDE8F08100F0FEFD0746A87A60B100233B
:10220000042231462846FFF7A8F8384600F0F6FDCC
:10221000FEF747FF0020EBE76C68E08AA18A88425E
:102220000EDB384600F0EAFD1E20E1E74100002009
:102230002C000020680000204200002054000020F4
:1022400061682069884201D1A06820612069001F6F
:10225000206120690660E08A401CE082384600F078
:10226000CDFD0020C4E72DE9F04105460F46164696
:102270004FF000082878022802D00120BDE8F08144
:1022800000F0B8FD8046A87AE8B106F0010050B130
:1022900005E00023042239462846FFF75EF8A87AB5
:1022A0000028F6D105E00023042239462846FFF72E
:1022B00054F8404600F0A2FD06F0040008B9FEF70D
:1022C000F0FE0020DAE76C68E08AA18A884204DB2D
:1022D000404600F093FD1E20D0E706F0020058B102
:1022E00061682069884201D1A06820612069001FCF
:1022F00020612069076009E0E168081DE0600F6067
:10230000D4E90210884201D16068E060E08A401C94
:10231000E082404600F072FD0020AFE72DE9F04773
:1023200005460C464FF0000A2878022802D001200A
:10233000BDE8F08700F05EFD8246A87A207405F1C2
:102340000B0804F10809002705E018F8010B09F84B
:10235000010B781CC7B2082FF7D36E68F08A18B14A
:1023600030690068206001E000202060F08AA080D1
:10237000B08AE080504600F041FD0020D8E72DE90A
:10238000F04178211048FEF77BFD00240DE0601C31
:1023900086B204EB44000C4901EBC00506EB460095
:1023A00001EBC0072F60601C84B2042CEFD304EB58
:1023B0004400054901EBC005002028600846034998
:1023C0000860BDE8F0810000780A00206800002065
:1023D0002DE9FF5F814688460020009000F00AFD4D
:1023E0000090F94850F8280030B1009800F006FD40
:1023F000282004B0BDE8F09FB9F1FF0F03D1F348E6
:10240000006890F83290F04850F8294024B90098BC
:1024100000F0F4FC2920ECE7012C04D1009800F036
:10242000EDFC4320E5E74FEAE80708F007000390DA
:102430000120B84000F0FF0A01210398814001F01B
:10244000FF0B0020E04941F82900084640F82840E9
:1024500014F8346FA07802906078343C0190DC4826
:10246000815D01980140D1B1D948805D01998843CF
:10247000D74988550846805D28B9D6480078029922
:102480008843D4490870D348007840EA0A00D1490B
:102490000870CF48C05D40EA0B00CD49C855E569DA
:1024A000D5B105F10B00805D0199884305F10B0161
:1024B00088550846805D18B9A87A02998843A872A1
:1024C000A87A40EA0A00A87205F10B00C05D40EA54
:1024D0000B0005F10B01C85584F8328084F8347084
:1024E000039884F8330084F836A084F835B0009857
:1024F00000F084FCB8480078012801D1FEF7D1FD36
:10250000002076E72DE9FE4F06460F4690461C4612
:102510004FF0000900F06EFC8146B048007828B109
:10252000484600F06BFC3C20BDE8FE8FA64850F802
:10253000240060BB0120A44941F82400484600F073
:102540005DFC002342463946304600F001FC8246DD
:10255000002000900190034602465146029020461A
:10256000FEF78EFF054635B99B48007801280CD14F
:10257000FEF797FD09E000F03DFC814600209249FE
:1025800041F82400484600F039FC2846CCE748468C
:1025900000F034FC2820C7E702F0010343B102F049
:1025A00002032BB102E0491E002308C00029FAD122
:1025B00070472DE9F04F85B081468A4693461C4608
:1025C000DDE90F78129D0020039000F013FC0390CA
:1025D0008248007830B1039800F010FC3C2005B030
:1025E000BDE8F08F784850F8240088BB0120764978
:1025F00041F82400039800F001FC2A464146384681
:10260000FFF7CAFF2B465A465146484600F0A0FB4A
:1026100004901198CDE9008002953A4620460E9B21
:102620000499FEF72DFF064636B96B48007801285D
:102630000CD1FEF736FD09E000F0DCFB0390002032
:10264000614941F82400039800F0D8FB3046C6E702
:10265000FFE7039800F0D2FB2820C0E72DE9F04106
:10266000054600275D48007810B14020BDE8F081A4
:102670003F2D01D13E20F9E700F0BCFB0746FF2DBE
:1026800003D15248006890F832504F4850F8254026
:1026900024B9384600F0B2FB4320E7E7012C04D10F
:1026A000384600F0ABFB3D20E0E714F8340F484912
:1026B000085C617888432178454A505414F83409FD
:1026C0001146085C30B994F83610424800788843C7
:1026D00040490870E06918B12046E169FEF728FE1C
:1026E000666A16B13046FFF722F80020E06284F8EF
:1026F000300084F831003A480078FF2804D2384886
:102700000078401C36490870384600F077FBFEF729
:102710000EFE00F06FFB07463148007820B13048CC
:102720000078401E2E490870204600F00EFB2D4810
:102730000078401E2B4908700020234941F82500ED
:10274000A06930B900206169886127496069086023
:1027500005E0D4E905014861D4E905108861234802
:10276000006860612148046021A0E064384600F000
:1027700045FB19480078012801D1FEF792FC0020A2
:1027800074E72DE9F041044600273F2C02D13E209A
:10279000BDE8F081FF2C0BD100F02CFB07460B4865
:1027A000006890F83760384600F028FB3046EFE7C5
:1027B00000F020FB0746044850F82450D5B93846AD
:1027C00000F01CFB4320E3E78805002054000020B4
:1027D00046000020450000204E000020410000205F
:1027E000420000204F000020600000205800002020
:1027F0003F000000012D04D1384600F0FFFA3D20D3
:10280000C6E73F2085F83700384600F0F7FA002089
:10281000BEE72DE9F04706460F4614464FF0000884
:10282000D648007820B1112020700020BDE8F08744
:1028300000F0E0FA8046FF2E03D1D148006890F8FE
:102840003260D04850F8265035B9404600F0D6FAEC
:10285000432020700020E9E7012D06D1404600F01A
:10286000CDFA432020700020E0E7E86C386038683B
:10287000FEF7FCFD8146404600F0C0FA00202070C3
:102880004846D3E72DE9F04106460F4614464FF07F
:102890000008BA48007818B112202070BDE8F08115
:1028A00000F0A8FA8046FF2E03D1B548006890F8E2
:1028B0003260B44850F826502DB9404600F09EFAD8
:1028C00043202070EAE7012D05D1404600F096FA3A
:1028D00043202070E2E7EF64404600F08FFA0020CA
:1028E000207000BFDAE770B50546002600F082FAD6
:1028F0000646A44850F8254024B9304600F07EFA38
:10290000462070BD012C04D1304600F077FA4320F8
:10291000F7E794F8300000F0080060B314F8300FC7
:1029200000F0F700207014F83009F8B9E06AC8B96F
:102930003434A07894490978084393490870207882
:102940009249085C6178084314F834198F4A50544E
:10295000304600F053FA8E480078012809D1FEF77E
:10296000A0FB06E0304600F049FA02E0304600F0F5
:1029700045FA0020C5E7304600F040FA4420C0E7A1
:102980002DE9F04707460D464FF0000A0020286069
:10299000686000F02FFA8246FF2F03D17848006864
:1029A00090F83270774850F827402CB9504600F024
:1029B00025FA4320BDE8F087012C04D1504600F0F1
:1029C0001DFA4320F6E7207C00F0010020B95046B4
:1029D00000F014FA4520EDE70026D4F80C90D4F866
:1029E0000880504600F00AFA00E0761C58F8041BF4
:1029F0000029FAD0B0002860A9EB060080006860CA
:102A00000020D7E72DE9F04105464FF0000800F01F
:102A1000F1F98046FF2D05D15948006890F83250F1
:102A2000012608E05648006890F83200A84201D11B
:102A3000012600E00026534850F825402CB94046B6
:102A400000F0DCF94820BDE8F081012C04D14046BB
:102A500000F0D4F94320F6E794F834704B48C05D99
:102A600094F8351088434949C8550846C05D30B9C7
:102A700094F836104448007888434349087094F825
:102A8000300040F0080084F83000404600F0B6F90D
:102A9000012E01D1FEF705FB0020D4E72DE9F0411E
:102AA00005460E46002700F0A5F90746FF2D03D185
:102AB0003348006890F83250324850F825402CB91D
:102AC000384600F09BF92920BDE8F081012C04D1A3
:102AD000384600F093F94320F6E754222146304669
:102AE000FEF7BAFC384600F089F90020ECE72DE942
:102AF000F04704460E4617464FF0000900F07AF9F9
:102B00008146FF2C02D11E48056802E01D4850F89E
:102B1000245005F1500050F82680484600F06EF928
:102B2000002038704046BDE8F0872DE9F0470446A4
:102B30000E46174698464FF0000900F05BF98146B3
:102B4000FF2C02D10E48056802E00E4850F82450D0
:102B500005F1500040F82670484600F04FF900207B
:102B600088F80000BDE8F08710B50548006800F05F
:102B70003FF9FF20FFF772FD10BD0000410000206B
:102B80005400002088050020450000204600002059
:102B90004E00002070B5054600266348007800B15D
:102BA00070BD6248007800B1FAE71DB300F022F969
:102BB00006465F48006890F834405E48005D5C4916
:102BC000096891F8351088435A4908550846005D50
:102BD00040B95748006890F8361057480078884345
:102BE0005549087052480068C562304600F006F941
:102BF000FEF757FA00BFD3E72DE9F04105460E4630
:102C000017461C464848007810B15520BDE8F081B1
:102C10004648007808B13220F8E74FF47A706043F4
:102C20004FF47A71B0FBF1F14FF461606843C6EB89
:102C3000061200EB8200384400EB4002C2EBC010E9
:102C400001EBC0084046FFF7A5FF0020DEE770B5A6
:102C5000054600263F2D01D32A2070BD00F0CAF89A
:102C60000646364850F8254024B9304600F0C6F8EC
:102C70004320F2E7012C04D1304600F0BFF8432096
:102C8000EBE7E06A20B9304600F0B8F85020E4E7FE
:102C90000020E06294F8300000F0370040B114F8F2
:102CA000300F20F03700207001206070303C02E0CF
:102CB000002084F8310094F8300000F00800A8B932
:102CC0003434A0781C49097808431B4908702078DF
:102CD0001849085C6178084314F83419154A5054AF
:102CE000304600F08BF8FEF7DCF902E0304600F0E9
:102CF00085F80020B1E770B5002500F07BF80546A7
:102D00000F480468284600F079F8204670BD70B579
:102D10000446002500F06EF8054609480460284680
:102D200000F06CF870BD000041000020420000205F
:102D300054000020460000204500002088050020A7
:102D40006C000020704770477047704770477047AD
:102D500070B5044610464FF080750560051F284683
:102D60002C606FF00106051F28462E604FF01236CA
:102D7000051F28462E604FF00336051F28462E609B
:102D80004FF00236051F28462E607610051F284694
:102D90002E60051F284629604FF01136051F284672
:102DA0002E604FF01036051F28462E604FF0093672
:102DB000051F28462E604FF00836051F28462E6056
:102DC0004FF00736051F28462E604FF00636051FC8
:102DD00028462E604FF00536051F28462E604FF01E
:102DE0000436051F28462E6070BD70477047704737
:102DF00070470000EFF3108072B6704780F31088C0
:102E00007047204C204D25604FF0000484F3098862
:102E10001E4C4FF0010525701D4C4FF0805525606C
:102E200062B6FEE730B41A4C4FF08055256030BCD6
:102E3000704730B4164C4FF08055256030BC704759
:102E400000BF72B6EFF3098028B1203880E8F00F98
:102E500010490968086000B50F4880475DF804EB29
:102E60000E480F490A7802700A480E490A68026043
:102E7000106890E8F00F203080F309884EF0040EBF
:102E800062B6704720ED00E00000FFFF4E0000201A
:102E900004ED00E054000020EB2D0008430000206A
:102EA000440000205C000020F0B5002401241948F3
:102EB0006043B0F1807F01D36FF07F400246B2F1F2
:102EC000807F00D31DE022F07F41491E4FF0E023B8
:102ED000596159170F23002907DA1D072F0E0E4DD0
:102EE00001F00F06361FAF5503E01D072E0E0B4DE8
:102EF0006E5400BF00214FF0E02399610721196152
:102F000000BFF0BD10B5FEF760F8FEF7A4F9FEF7BC
:102F100077F810BD4019010018ED00E000E400E072
:102F200010B5FDF743FA4FF48030FDF75FFAFDF777
:102F30009CFA0446012C25D11020FDF71DFC02202F
:102F4000FDF706FC0020FDF7D6FA0020FDF7E5FAB4
:102F5000A002FDF7D9FA4FF4E0112004FDF7AEFA14
:102F60000120FDF7B7FA00BF3920FDF762FA00280B
:102F7000FAD00220FDF7B1FA00BFFDF7B7FA082832
:102F8000FBD101E000BFFEE710BD10B5FFF7C8FFA1
:102F9000FEF705F8FFF788FFFEF726F9002010BDC1
:102FA000704700BFFEE700BFFEE700BFFEE700BFBF
:102FB000FEE770477047704770477047754600F0EE
:102FC0002BF8AE4605006946534620F007008546BB
:102FD00018B020B5FDF7A8FEBDE820404FF0000670
:102FE0004FF000074FF000084FF0000B21F00701F1
:102FF000AC46ACE8C009ACE8C009ACE8C009ACE834
:10300000C0098D46704710B50446AFF300802046D6
:10301000BDE81040FDF7D3B800487047F00A002023
:1030200001491820ABBEFEE72600020070470000F1
:103030000100020001000300010002000100040081
:103040000100020001000300010002000100050070
:103050000100020001000300010002000100040061
:10306000010002000100030001000200010006004F
:103070000100020001000300010002000100040041
:103080000100020001000300010002000100050030
:103090000100020001000300010002000100040021
:1030A000010002000100030001000200010007000E
:1030B0000100020001000300010002000100040001
:1030C00001000200010003000100020001000500F0
:1030D00001000200010003000100020001000400E1
:1030E00001000200010003000100020001000600CF
:1030F00001000200010003000100020001000400C1
:1031000001000200010003000100020001000500AF
:1031100001000200010003000100020001000400A0
:103120000100020001000300010002000100000094
:103130005031000800000020700000006C01000801
:10314000C031000870000020E01000008801000875
:1031500000A24A0400000000000000000102030475
:10316000060708090000000001020304010203042D
:10317000060708090204060800000000000000001D
:10318000000000000000000000000000000000003F
:10319000000000000000000000000000000000002F
:1031A000000000000000000000000000000000001F
:1031B000000000000000000000000000000000000F
:0400000508000131BD
:00000001FF
